:020000040800F2
:10000000F84B002015020008471F0008FF0F0008EA
:10001000451F000809090008A33B00080000000074
:100020000000000000000000000000003123000874
:100030008509000800000000F122000833230008B1
:100040002F0200082F0200082F0200082F020008CC
:100050002F0200082F0200082F0200082F020008BC
:100060002F0200082F0200082F0200082F020008AC
:100070002F0200082F0200082F0200082F0200089C
:100080002F0200082F0200082F0200082F0200088C
:10009000313B00082F0200082F0200082F02000841
:1000A0002F0200082F0200082F0200082F0200086C
:1000B0002F0200082F0200082F0200082F0200085C
:1000C0002F0200082F0200082F0200082F0200084C
:1000D0002F0200082F0200082F0200082F0200083C
:1000E0002F0200082F0200082F0200082F0200082C
:1000F0002F0200082F0200082F0200082F0200081C
:100100002F0200082F0200082F0200082F0200080B
:100110002F0200082F0200082F0200082F020008FB
:100120002F0200082F0200082F0200082F020008EB
:1001300000F002F800F05FF80AA090E8000C82449A
:100140008344AAF10107DA4501D100F054F8AFF277
:10015000090EBAE80F0013F0010F18BFFB1A43F0A5
:1001600001031847DC3B0000FC3B00000A444FF051
:10017000000C10F8013B13F0070408BF10F8014B06
:100180001D1108BF10F8015B641E05D010F8016B4B
:10019000641E01F8016BF9D113F0080F1EBF10F8AF
:1001A000014BAD1C0C1B09D16D1E58BF01F801CBD2
:1001B000FAD505E014F8016B01F8016B6D1EF9D555
:1001C0009142D6D37047000000230024002500266A
:1001D000103A28BF78C1FBD8520728BF30C148BFAA
:1001E0000B607047642900F09180002070471FB5B4
:1001F0001FBD10B510BD00F01EFA1146FFF7F7FF46
:1002000003F0F6FC00F03CFA03B4FFF7F2FF03BC86
:1002100000F044FA0948804709480047FEE7FEE736
:10022000FEE7FEE7FEE7FEE7FEE7FEE7FEE7FEE7A6
:1002300004480549054A064B70470000AF230008F3
:1002400031010008F8270020F84B0020F847002073
:10025000F8470020B2F120030AD5C2F1200320FAAA
:1002600002F001FA03F321FA02F140EA03007047B9
:1002700021FA03F04FF00001704700000FB41CB5E5
:10028000074B06AA7B4469460090059800F089F95F
:100290000020694600F098F91CBC5DF814FB0000D2
:1002A000410300002DE9F0410E4604460020206283
:1002B0002046E168884730B3252805D0D4E90121DC
:1002C0009047206A401CF2E7E168204600278847F3
:1002D000050018D0A5F14100192802D820354FF4A7
:1002E00000673246294620462760FFF77BFF40B172
:1002F000012804D0F61D26F007060836D8E7361D7B
:10030000D6E72846DAE7206ABDE8F0812DE9F0411A
:100310000646002410687529314616A510D0AFF3A3
:100320000080002802DA404213A507E031688A07FE
:1003300001D512A502E0490704D511A5012401E069
:10034000AFF3008000210A2206F1240709E0B0FB88
:10035000F2FCB0FBF2F302FB1C003030785418467C
:10036000491C0028F3D123462A463046BDE8F04117
:1003700000F0B8B8000000002D0000002B000000C5
:100380002000000010B5431C02E010F8011B71B101
:100390008107FAD14FF0013202C88C1A8C4314EA5B
:1003A000C211F9D0C01A0A0603D0C01E10BDC01A6F
:1003B00010BD0A0401D0801E10BD0902FCD0401EF1
:1003C00010BD032A40F2308010F0030C00F01580BD
:1003D00011F8013BBCF1020F624498BF11F801CB48
:1003E00000F8013B38BF11F8013BA2F1040298BFAD
:1003F00000F801CB38BF00F8013B11F0030300F017
:10040000E880083AC0F0088051F8043B083A51F8F7
:1004100004CBA0E80810F5E7121D5CBF51F8043BBF
:1004200040F8043BAFF30080D20724BF11F8013B32
:1004300011F801CB48BF11F8012B24BF00F8013B94
:1004400000F801CB48BF00F8012B70474FF00002C5
:100450000429C0F0128010F0030C00F01B80CCF1D6
:10046000040CBCF1020F18BF00F8012BA8BF20F844
:10047000022BA1EB0C0100F00DB85FEAC17C24BF98
:1004800000F8012B00F8012B48BF00F8012B704742
:100490004FF0000200B5134694469646203922BF1D
:1004A000A0E80C50A0E80C50B1F12001BFF4F7AF68
:1004B000090728BFA0E80C5048BF0CC05DF804EB4A
:1004C000890028BF40F8042B08BF704748BF20F8B8
:1004D000022B11F0804F18BF00F8012B70477047B6
:1004E000704770472DE9F0470D46994692460446FD
:1004F00000F124080168880604D5E06921F01001A4
:10050000216000E00120A84201DD471B00E0002738
:10051000A1697A1902EB0900081AA0612078C006C7
:1005200002D42046AFF30080002608E0D4E9012180
:100530001AF806009047206A401C761C20624E453F
:10054000F4DB2078C0060AD52046AFF3008006E031
:10055000D4E9012130209047206A401C2062381ED7
:10056000A7F10107F4DC07E0D4E9012118F8050040
:100570009047206A401C2062281EA5F10105F3DC8B
:100580002046AFF300802078000602D50220BDE8A7
:10059000F0870120FBE7000001694A1C026108782E
:1005A000704700B58FB0CDE90131002105910549B3
:1005B0007944CDE9031011466846FFF773FE0FB08A
:1005C00000BD0000E5FFFFFF0A6802F8010B0A60AA
:1005D000704710B5203AC0F00B80B1E81850203AAF
:1005E000A0E81850B1E81850A0E81850BFF4F5AFD3
:1005F0005FEA027C24BFB1E81850A0E8185044BF5D
:1006000018C918C0BDE810405FEA827C24BF51F8C9
:10061000043B40F8043B08BF7047D20728BF31F8BD
:10062000023B48BF11F8012B28BF20F8023B48BF0E
:1006300000F8012B7047754600F02CF8AE46050017
:100640006946534620F00700854618B020B5FFF7ED
:10065000EFFDBDE820404FF000064FF000074FF0DF
:1006600000084FF0000B21F00701AC46ACE8C009D0
:10067000ACE8C009ACE8C009ACE8C0098D467047D9
:1006800010B50446AFF300802046BDE81040FFF7E8
:10069000BBBD000000487047982700200149182082
:1006A000ABBEFEE72600020070470000054AA22309
:1006B00013705070000A9070D1700421104602F03F
:1006C0008FBE000078170020064900200860064809
:1006D000A12101700421417001218170032102F0E8
:1006E0007FBE0000880100207817002010B5042389
:1006F000012206A10A48FFF7C1FD0948FFF742FEA3
:1007000081B2BDE81040064802F06ABE3C426F6FFD
:10071000747C5665723A25642E25643E0A000000FA
:100720007817002008B50020009002226946024890
:1007300003F074FA08BD0000FCE70708174C1849DD
:100740002068884221D1174D00262E7102F054FEF8
:1007500001F0CEFB0DE00A2000F0B2F902F0DAFD64
:1007600002F0F6FD010004D00F4800F02FF802F06F
:10077000E9FD28790028EED06420266000F0A0F979
:1007800001F09DFB642000F09BF900F011F810B11E
:10079000064803F017FA01F0ADFD0000F0BF00209D
:1007A000F50505FA88010020981700200080000850
:1007B000044800680449884201D1012070470020A4
:1007C00070470000FCE7070855AA55AA2DE9F04735
:1007D000DFF80C910546067899F80400884630B990
:1007E000B8F1060F03D9522E09D0532E07D0512E3F
:1007F0006FD03F2E71D1BDE8F047FFF777BF697822
:10080000A87801EB00200704E87829793F0C00EB79
:10081000012084B215D0B9F80600411CB9424ED16E
:10082000A9F80670A8F10600844207D14FF480624F
:10083000944203D8532E0CD094420AD0102138464B
:1008400043E00021C9F80010A9F80610FFF76AFF7D
:10085000E8E70021084605E02B18401C5B7980B2D0
:100860001944C9B2A042F7D305EB080010F8010CF7
:100870008842E3D111461B48FFF7E8FD2246691D77
:100880001848FFF79EFDE0074FEA540200D0521CC3
:100890001549D9F800004D460844124903F0BEF945
:1008A00028680121204428603846FFF7FFFE532EB8
:1008B00013D101202871BDE8F04700F017B8B84205
:1008C00001D1012101E088B21021BDE8F047FFF716
:1008D000EDBEBDE8F047FFF7F7BEBDE8F0870000CA
:1008E00088010020781300200080000808B5044823
:1008F000009002226946034803F090F908BD000009
:1009000055AA55AAFCE70708FEE70020704700201B
:100910007047000010B500220449054801F03AFE76
:100920000449034801F030FE002010BD5C0A00209D
:10093000980100205C06002010B50446096802F00A
:1009400011FD2146034801F01FFE024801F000FEA0
:10095000002010BD980100200A46094910B5D1F8C1
:10096000B812D1F8141209B1012010BD0146044893
:1009700001F010FEBDE81040014801F069BE000022
:1009800098010020704772B6FEE70000064900207B
:10099000C8610648016941F004010161016941F043
:1009A0004001016170470000581300200020024000
:1009B000064A0021D16106490A6942F002020A6131
:1009C0004861086940F040000861704758130020F2
:1009D00000200240044B0022DA61044A136943F00C
:1009E000010313610180704758130020002002406A
:1009F00014490020CA68D306134A04D5D06940F0D0
:100A00000200D0611020CB685B0705D5D36943F0A5
:100A10000103D36140F00400CB69DB0707D0D36941
:100A200043F00403D361CA6922F00102CA61A0F550
:100A30008072013A01D0C8607047C86920F0010097
:100A4000C8617047002002405813002070B504466A
:100A500000F0FAF90546114E09E0601C07D024B1F8
:100A600000F0F2F9401BA04201D9032070BDF068EC
:100A7000C007F2D1F068800601D52020F060F06850
:100A8000C00605D4F069C00702D1F068400703D55D
:100A9000FFF7AEFF012070BD002070BD00200240B6
:100AA000064810B54FF0FF31016100220261C160BC
:100AB000C26000F009FA002010BD000000100240E2
:100AC00070B5044600F0C0F90546601C02D0044829
:100AD0000078044400F0B8F9401BA042FAD370BD7E
:100AE000600000202DE9F047054626480F46012604
:100AF000017E01290FD00121814601762868DFF8A7
:100B000088804CF25034022808D0A2462046FFF7D5
:100B10009DFFA8B131E00220BDE8F0872046FFF735
:100B200095FF08BB0120FFF731FF2046FFF78EFF3E
:100B3000D8F81010064621F00401C8F810101CE087
:100B40004FF0FF303860AC6811E02046FFF730FF0F
:100B50005046FFF77BFFD8F81010060021F0020185
:100B6000C8F8101001D03C6007E004F50064D5E936
:100B7000020100EBC120A042E7D8002189F818103B
:100B80003046C9E75813002000200240034801699D
:100B900041F0800101610020704700000020024008
:100BA0002DE9F05F05461D4888460024017E164663
:100BB0001F46012909D00121814601764CF2503AA5
:100BC0005046FFF743FF18B123E00220BDE8F09F35
:100BD000012D02D0022D00D00425D346DFF840A01D
:100BE00015E0220130463946FFF734FB81B208EBAD
:100BF0004400FFF7EFFE5846FFF728FFDAF8102011
:100C000022F00102CAF8102018B9641CE4B2AC4208
:100C1000E7D3002289F81820D8E7000058130020F5
:100C200000200240064900200A69120607D5054A3D
:100C30004A60054A4A600969090600D501207047E3
:100C40000020024023016745AB89EFCD2DE9F84F25
:100C5000DFF8C0910024A9F1040B23464FF00F08E0
:100C600009F1040AABF1040ECCE00127A7403A4099
:100C7000BA4272D1DFF8A0C14D68A5EB0C066545FC
:100C80002BD00DDC032D34D005DC35B3012D19D06C
:100C9000022D2FD11BE0112D16D0122D2AD119E0D3
:100CA000B6F5881F19D006DCB6F5803F15D0B6F52D
:100CB000801F1FD111E0B6F5001F0ED0B6F5041F3E
:100CC00018D10AE0CB6815E0CB681B1D12E0CB6899
:100CD00008330FE0CB680C330CE08B682BB1012B91
:100CE0004FF0080303D0476104E0042302E00761EA
:100CF00000E00023FF2A01D8064601E000F10406C7
:100D00004FEA840501D9A5F12005376808FA05FCEA
:100D100027EA0C0703FA05F547EA050737604D682F
:100D2000ED006ED53D4DAE6946F00106AE61AD6990
:100D300024F0030605F001050095394D7719BE68CA
:100D4000A5072D0F08FA05FC26EA0C06DFF8D4C02B
:100D5000604503D14FF0000C25E052E0DFF8C8C039
:100D6000604502D14FF0010C1DE0DFF8C0C06045C6
:100D700002D14FF0020C16E0DFF8B4C0604502D19A
:100D80004FF0030C0FE0DFF8ACC0604502D14FF02C
:100D9000040C08E0DFF8A0C0604502D14FF0050C5C
:100DA00001E04FF0060C0CFA05FC4CEA060CC7F803
:100DB00008C04D68D9F80060ED024D4601D51643D4
:100DC00000E096432E604D68DAF80060AD025546AB
:100DD00001D5164300E096432E604D68DBF80060B5
:100DE000AD035D4601D5164300E096432E604D6885
:100DF000DEF80060ED03754601D5164300E096432A
:100E00002E60641C0A6832FA04F57FF42EAFBDE848
:100E1000F88F00000804014000001110001002408B
:100E20000000014000080140000C0140001001409A
:100E30000014014000180140001C01400AB101618A
:100E400070470904FBE70000014880687047000014
:100E50006000002002488168027811448160704778
:100E600060000020074810B5016841F010010160E2
:100E7000032000F077F80F2000F006F800F026F8C5
:100E8000002010BD0020024070B50D4D04464FF407
:100E90007A712878B1FBF0F00A490968B1FBF0F0EB
:100EA00000F0DEFF48B9102C07D200222146501E68
:100EB00000F038F800206C6070BD012070BD0000AB
:100EC000600000206C000020704700000C4808B54E
:100ED000816941F001018161816901F001010091A5
:100EE000C16941F08051C161C069064900F080507C
:100EF0000090486820F0E06040F00070486008BD55
:100F00000010024000000140002809DB00F01F0231
:100F1000012191404009800000F1E020C0F800115B
:100F200070470000F0B40E4B1B68C3F30223C3F1FB
:100F30000704042C00D904241D1D072D01D2002311
:100F400000E0DB1E012606FA04F56D1E0D409D40F3
:100F50009E40761E164045EA0601F0BC02F022BE15
:100F60000CED00E0064A00F0070110684FF6FF03A1
:100F7000184040EA01200349084310607047000010
:100F80000CED00E00000FA0510B50C0607D501F0E5
:100F9000070101EB810100EBC100103005E001EB1E
:100FA000810100EBC10000F5A87099B232B10122B5
:100FB00002730181190C4181002010BD00220273CF
:100FC000C180F9E7704701EB810200EBC202D0F863
:100FD000D402526A01F0EBBC01EB810200EBC202C9
:100FE000D0F8D402D2F8642101F044BD01F0070129
:100FF00001EB810100EBC100D0F86C017047FEE706
:10100000040100000001000070B504460B0601F069
:10101000070000EB800104EBC1014FF001024FF02B
:10102000000502D54A74103103E081F8515101F5F1
:10103000A871087094F89002012808D084F89022D2
:10104000206802F00BFA84F89052002070BD022054
:1010500070BD70B5044601F00F002279904201D9AD
:10106000012070BD0B0601F0070000EB800104EBCE
:10107000C1014FF001024FF0000502D54A74103152
:1010800003E081F8515101F5A8718D70087094F852
:101090009002012808D084F89022206802F07CFA9F
:1010A00084F89052002070BD022070BD2DE9F05FE1
:1010B000046857040B788D69B4F850704FF000063F
:1010C0004BF68F7948F2800A48F68F7B48F2C00EC3
:1010D0004FF480682AD54FF0020C0CEBC30C674428
:1010E00008EB4707E45BC4F30904A54203D32D1BB7
:1010F0008D6101D00BE08E61056835F8236006EA4A
:10110000090686F4005646EA0A0625F823605206C8
:1011100009D50A78036833F8225005EA0B0545EA39
:101120000E0523F8225084B30A8929E04FF0060CFB
:101130000CEBC30C674408EB4707E45BC4F30904FA
:10114000A54203D32D1B8D6101D00BE08E61056894
:1011500035F8236006EA090686F4005646EA0A06D0
:1011600025F82360520609D40B78026832F8235020
:1011700005EA0B0545EA0E0522F823502CB14A89F1
:1011800049690068234602F0DCFC2046BDE8F09F78
:101190002DE9F05F054600680C465FEA426C8B69FA
:1011A00016460978B0F850C048F68F774CF280099F
:1011B0004FF4004B4FF6FF7E4FF4806A4FF0000271
:1011C00075D54FF0020808EBC108E0440AEB480C63
:1011D00030F80C00C0F30900834211D91B1AA36137
:1011E0000FD0730407D52B6833F821603E4046EAE0
:1011F000090623F8216094F82410012949D057E109
:10120000A261607810B1012813D01AE02868B0F804
:101210005030184400EB0110B0F80414C1F3090178
:10122000A0F80414B0F8041441F40041A0F8041428
:1012300007E02868B0F85030184400EB0110A0F81F
:1012400004246178286811B1012913D01AE0B0F89C
:1012500050100844217800EB0110B0F80C14C1F3D1
:101260000901A0F80C14B0F80C1441F40041A0F8E6
:101270000C1407E0B0F850100844217800EB01107E
:10128000A0F80C2421782846FFF79DFE700473D443
:101290000EE1616901446161E1690144E161236931
:1012A000216A994204D31846091A216205E03EE0FA
:1012B00084F8242009B108462262617811B101291D
:1012C00029D031E02968B1F850201144227801EB8F
:1012D0000211B1F80424C2F30902A1F8042401F2B6
:1012E00004413E2807D94209C30600D1521E0B888B
:1012F0004BEA822207E048B14208C30700D0521CE3
:101300000B880EEA822213430B800DE00A8842F418
:1013100000420A8008E02968B1F850201144227880
:1013200001EB0211A1F8040483B22289BCE04FF062
:10133000060808EBC108E0440AEB480C30F80C0042
:10134000C0F30900834211D31B1AA3610FD07304A9
:1013500007D42B6833F821603E4046EA090623F89B
:10136000216094F82410012953D0A1E0A261607893
:1013700018B1012814D01BE041E02868B0F85030C3
:10138000184400EB0110B0F80414C1F30901A0F8EF
:101390000414B0F8041441F40041A0F8041407E068
:1013A0002868B0F85030184400EB0110A0F804246D
:1013B0006178286811B1012913D01AE0B0F85010F3
:1013C0000844217800EB0110B0F80C14C1F30901B6
:1013D000A0F80C14B0F80C1441F40041A0F80C145F
:1013E00007E0B0F850100844217800EB0110A0F895
:1013F0000C2421782846FFF7E6FD700458D42178A4
:10140000286830F821203A4042EA090220F82120D9
:101410004EE0616901446161E1690144E161236970
:10142000216A994203D31846091A216204E009B1DE
:101430000846226284F824206278296812B1012AC1
:1014400028D02FE0B1F850201144227801EB02118E
:10145000B1F80C24C2F30902A1F80C2401F20C41EA
:101460003E2807D94209C30600D1521E0B884BEA19
:10147000822207E048B14208C30700D0521C0B8803
:101480000EEA822213430B800CE00A8842F40042E9
:101490000A8007E0B1F850201144227801EB0211D4
:1014A000A1F80C04628983B26169286802F066FBC6
:1014B0002178286830F8212048F6BF731A4082F05E
:1014C000300248F280031A4320F821200020BDE8B2
:1014D000F09F2DE9F04104460E0601F0070000EBF5
:1014E000800104EBC1014FF001074FF0000502D568
:1014F0004F74103103E081F8515101F5A871022BAE
:1015000008700A61CB7000D10D7194F89002012827
:1015100009D084F89072206801F0BCFD284684F858
:101520009052BDE8F0810220FBE710B501F00704FE
:1015300004EB840100EBC101C1E959230022C1F889
:101540006C2181F8512181F85041006801F5A871A2
:1015500002F075F8002010BD70B504460D4601F08C
:1015600007002179884201D9012070BD29064FF07A
:1015700000064FF0010206D500EB800104EBC1012B
:101580004A74103107E005EB850104EBC10181F8D5
:10159000516101F5A8718A70087094F890020128D1
:1015A00007D084F89022206802F030F8680702D053
:1015B00006E0022070BD04F52671206801F0EAFF04
:1015C00084F89062002070BD10B501F0070404EBB0
:1015D000840100EBC101C1E90923012281F8342013
:1015E0000B630023CB624A7401F8104F006802F0CD
:1015F00026F8002010BD1FB50446006802F09EFAD0
:10160000010403D5204600F09FFC1FBD41050DD508
:10161000206830F8441F21F480610180204600F0EA
:10162000FDF80021204600F014F91FBD410405D546
:10163000206830F8441F21F4804173E0810405D50F
:10164000206830F8441F21F400516BE0C10414D528
:10165000206830F8401F21F004010180206830F834
:10166000401F21F008010180204600F0EAF82068C0
:1016700030F8441F21F4805154E001053FD5216822
:1016800000206A4631F8203022F81030401CC0B2E9
:101690000828F7D331F8400F40F001000880206897
:1016A00030F8401F21F0010101802068B0F844109B
:1016B0004905FBD530F8441F21F4806101800020EA
:1016C000236832F8101023F82010401CC0B20828FC
:1016D000F6D3206830F8401F41F0080101802068EF
:1016E00030F8441F21F400610180206830F8401F69
:1016F00041F004010180204600F0DEF81FBD8105A5
:1017000009D5206830F8441F21F40071018020467B
:1017100000F09BF81FBDC005FCD5206830F8441FC1
:1017200021F4807101801FBD2DE9F041040004D037
:1017300094F89102002518B107E00120BDE8F0817E
:1017400084F89052204600F04BF8032084F8910270
:101750006571206801F017FF94E80F0001F07CFE2E
:10176000022690BB0021206802F000FA68BB00212D
:1017700001270BE001EB810004EBC000477401740A
:10178000C57405624562491CC9B2856220798842E8
:10179000F0D8002111E001EB810004EBC00080F8DB
:1017A000515180F8501180F85351C0F86051C0F881
:1017B0006451491CC9B2C0F8685120798842EAD8FE
:1017C00094E80F0001F0D6FE10B184F89162B4E7FE
:1017D000657384F89172206801F0CAFE0020ADE7BD
:1017E00008B500680B49884212D10B48C16941F421
:1017F0000001C161C069002200F4000000901146A0
:101800001420FFF78FFBBDE808401420FFF77CBBD6
:1018100008BD0000005C00400010024070B50446A6
:1018200080790125022801D0FFF7ADF82946D4F8C8
:10183000D40201F007FAD4F8D402BDE8704001F0F8
:10184000C3B9D0F8D40201F0E7B9D0F8D40201F05E
:10185000EDB910B5044690F8900201280AD0012095
:1018600084F890026173206802F082F9002084F805
:10187000900210BD022010BDD0F8D42200F52671D0
:10188000104601F0EBB910B5044690F8900201281B
:1018900010D0012084F89002206802F040F9012164
:1018A0002046FFF78FFB206801F060FE002084F8DF
:1018B000900210BD022010BD10B50446D0F8D4022D
:1018C00001F00BFAA07A002804D00348016841F027
:1018D0000601016010BD000010ED00E02DE9F843A5
:1018E00004460078344FC00752D0F8690025C00084
:1018F00008D4F86940F08050F861F869012500F0DB
:10190000805000902D480168C90511D401688046B7
:1019100041F480710160FFF797FA064604E0FFF793
:1019200093FA801B642822D8D8F80000C005F6D5A9
:10193000386A10F4407020D0A18801F440718142CF
:101940001BD0386A1E49012220F440700A60002230
:101950000A603862C00710D0FFF776FA064641F2F7
:10196000883807E0FFF770FA811B414502D9032050
:10197000BDE8F883386A8007F4D5386A616820F4D6
:101980004070084338621DB1F86920F08050F8615A
:101990002078800705D57868A16820F44040084386
:1019A00078602078C00605D57868616920F48000E9
:1019B000084378600020DBE7001002400070004020
:1019C000400442422DE9F0470D46040067D0DFF89D
:1019D0001881D8F8000000F00700A8420CD2D8F80F
:1019E000001021F007012943C8F80010D8F80000C2
:1019F00000F00700A84252D120683C4E810712D562
:101A0000400703D5706840F4E060706020780007FC
:101A100003D5706840F4605070607068A16820F071
:101A2000F000084370602078C00727D06068012864
:101A300010D03168022810D0890700292FDA716888
:101A400021F0030101437160FFF7FEF9074641F2FF
:101A500088390CE031688903EFE78901EDE7FFF78A
:101A6000F3F9C11B494502D90320BDE8F08770682E
:101A7000616800F00C00B0EB810FF0D1D8F80010D5
:101A8000404601F00701A9420BD9016821F0070186
:101A900029430160006800F00700A84201D001203E
:101AA000E3E72078400705D57068E16820F4E0603E
:101AB000084370602078000706D57068216920F41B
:101AC000605040EAC100706000F018F87168084A80
:101AD000C1F30311515CC84006490860064800681C
:101AE000FFF7D2F90020C0E70020024000100240BA
:101AF0002E3D00086C000020640000200E4B596849
:101B00000E4801F00C02042A11D0082A0FD10C480B
:101B1000C1F38342C903805C0AD55968084AC1F3FE
:101B20004041921E515C054A5043B0FBF1F07047B2
:101B300004494843704700000010024000127A0038
:101B40001E3D000800093D002DE9F84F04006FD04C
:101B50002078BE4DC00747D06868C0F381000128D7
:101B600007D06868C0F38100022809D16868C00303
:101B700006D52868800337D560680028E7D033E0B1
:101B80006068B0F5803F0BD010B1B0F5A02F11D038
:101B9000286820F480302860286820F4802002E043
:101BA000286840F480302860606888B1FFF74CF9FD
:101BB000064609E0286840F480202860F0E7FFF737
:101BC00043F9801B642873D828688003F7D50BE09D
:101BD000FFF73AF9064604E0FFF736F9801B642860
:101BE000F1D828688003F7D42078DFF86482800772
:101BF0004FF0010A4FF0000939D5686810F00C0F5A
:101C000007D06868C0F38100022809D16868C00362
:101C100006D42868800714D52069012808D110E06F
:101C20002069B0B1C8F800A0FFF70EF9064605E03C
:101C300007E1FFF709F9801B0228C4D8286880074C
:101C4000F7D52868616920F0F80040EAC1002860F3
:101C50000DE0C8F80090FFF7F7F8064604E0FFF73C
:101C6000F3F8801B022823D828688007F7D420784F
:101C700000072CD57748A169D9B1C0F800A0FFF7BB
:101C8000E3F8064604E0FFF7DFF8801B02280FD8D0
:101C9000686A8007F7D570484FF4FA510068B0FBC6
:101CA000F1F0009000BF0098411E0091FAD20EE0C2
:101CB0007CE0C0F80090FFF7C7F8064604E0FFF7A5
:101CC000C3F8801B022871D8686A8007F7D420788F
:101CD00040075BD5E8690027C00008D4E86940F0F8
:101CE0008050E861E869012700F0805000905B486F
:101CF0000168C90511D40168834641F4807101600F
:101D0000FFF7A2F8064604E0FFF79EF8801B642860
:101D10004CD8DBF80000C005F6D5E06801280AD0F1
:101D200008B1052813D0286A20F001002862286A2B
:101D300020F0040002E0286A40F001002862E06818
:101D400041F2883B88B1FFF77FF8064609E0286A30
:101D500040F004002862EEE7FFF776F8811B594552
:101D60005BD8286A8007F7D50BE0FFF76DF80646C9
:101D700004E0FFF769F8811B59454ED8286A8007AF
:101D8000F7D41FB1E86920F08050E861E069A8B39A
:101D90006968C1F38101022946D00228484606D06D
:101DA000C8F86000FFF750F8044639E035E04746D0
:101DB000C8F86000FFF748F8064604E0FFF744F86B
:101DC000801B022829D828688001F7D4206AB0F542
:101DD000803F05D16868A16820F40030084368603E
:101DE000D4E908010843696821F474110843686064
:101DF000C7F860A0FFF728F8044605E023E0FFF7E6
:101E000023F8001B022808D828688001F7D51AE0BB
:101E1000FFF71AF8001B022802D90320BDE8F88F4B
:101E200028688001F4D40EE00128F7D06868226A9F
:101E300000F48031914204D1616A00F4701088424C
:101E400001D00120EAE70020E8E70000001002408E
:101E500000004242800442426C00002000700040BA
:101E600010B5401EB0F1807F01D3012010BD4FF0AE
:101E7000E02460610F21601701F094FE0020A06152
:101E800007202061002010BDF0B500230A24302572
:101E900037261F4610E0B4EB107F02D905EB107C0B
:101EA00001E006EB107C01F813C001EB430C0001CC
:101EB0005B1C8CF80170DBB29342ECD3F0BDFEF7F3
:101EC000EFBD0000094808B5816941F0200181613A
:101ED000816901F020010091816941F00401816173
:101EE000806900F00400009008BD0000001002406E
:101EF00010B500220F49104800F032FD08B1FEF77E
:101F000042FD0E490C4800F00EFF08B1FEF73BFD04
:101F10000B49094800F030FB08B1FEF734FD0648D4
:101F200000F056FF002803D0BDE81040FEF72BBD9F
:101F300010BD000000000020980100204C0100208E
:101F400050000020FEE7FEE72DE9F05F04464FF069
:101F5000060A4FF480694FF0000BC0E1B0F844105E
:101F600011F00F063AD030F826805FEA08417DD59F
:101F700030F8261040F68F72114041F0800120F8B1
:101F8000261006EB860004EBC00595F85C0105F50C
:101F9000A87500286BD0E878022869D029782068D5
:101FA00030F8212048F68F731A4048F2C0031A43D4
:101FB00020F821202978206830F82120B0F850300E
:101FC00052047DD5022202EBC1015A1809EB4201ED
:101FD000415A8F05BF0D74D02A89D9E0C9062CD487
:101FE000018848F60F72114041F4004101802068D9
:101FF00004F11005B0F85020237C022101EBC3014D
:102000000A4409EB4201405AC0F30900E062616AE8
:102010000844606200212046FEF7D5FF607B00285F
:102020009BD0A869002898D1607B216840F080008F
:10203000A1F84C0084F80DB051E1018804F5A875B1
:102040000A0521D5B0F850202B780AEBC3010A44C9
:1020500009EB4201405A04F52671C0F30903EB6114
:10206000EA88206801F06DFD206802E0A8E06FE0DA
:102070007DE0018840F68F72114041F080010180BF
:102080002046FFF7F9FB2AE10904D5D5018840F67F
:102090008F72114041F0800101802068B0F850201B
:1020A0002B780AEBC3010A4409EB4201405A83052D
:1020B0009B0DEB6110D0696971B1EA88206801E07D
:1020C0005CE05AE001F03DFDE96968690844686137
:1020D00000212046FEF780FF206801880A05ABD466
:1020E000C1F301310329A7D0B0F850100844B0F86B
:1020F0000C14C1F30901A0F80C14296900F20C407A
:102100003E2909D94A09C90600D1521E01884FF457
:10211000004343EA822209E0B1B14A08C90700D06E
:10212000521C01884FF6FF7303EA8222114301809B
:10213000206801884BF68F72114081F4405148F2BB
:10214000800211430180CAE0018841F40041EEE7BA
:102150002068B0F850202B780AEBC3010A4409EB41
:102160004201415A8F05BF0D16D0EA8810E0424661
:1021700029462046FEF79AFF07460DE00AEBC1010B
:102180005A1809EB4201415A8F05BF0D04D06A89E4
:102190003B46696901F0D5FCE8693844E861686943
:1021A00038446861A86910B12869B84204D929780F
:1021B0002046FEF711FF03E02946206801F03FFAB0
:1021C0005FEA086030D506EB860004EBC0012068AA
:1021D00030F8262048F60F731A4042F4004220F8E7
:1021E0002620C87C103101281FD05FEAC85072D465
:1021F0002068B0F850300D78022202EBC50213447B
:1022000009EB4302805A8A69C0F3090082425AD915
:10221000121A8A6159D04A6902444A61CA69104453
:10222000C861206801F00BFA59E0C1F818B0087BCA
:102230005B4620B35FEA486022D5487810B1012898
:1022400014D03EE02068B0F8502010440A7800EB2B
:102250000210B0F80424C2F30902A0F80424B0F874
:10226000042442F40042A0F804242AE02068B0F8D4
:10227000502010440A7800EB0210A0F8043420E04B
:102280004A78206812B1012A13D01AE0B0F8502021
:1022900010440A7800EB0210B0F80C24C2F30902D3
:1022A000A0F80C24B0F80C2442F40042A0F80C244E
:1022B00007E0B0F8502010440A7800EB0210A0F8B4
:1022C0000C34097802E0C1F818B0E9B22046FEF7F4
:1022D0007AFE04E0FFE742462046FEF759FF2068F9
:1022E000B0F8441009043FF539AE0020BDE8F09F76
:1022F000704700000A480B4901600A20FEF7E0FB26
:10230000012080F31388BFF34F8F07480168074A05
:1023100001F4E06111430160BFF34F8F00BFFDE79F
:10232000F0BF0020F50505FA0CED00E00400FA0509
:102330007047FEF78FBD30B595B028216846FEF78F
:10234000A7F814210AA8FEF7A3F818210FA8FEF792
:102350009FF801210804CDE9001000240294022511
:102360000491CDE90750000109906846FFF7ECFBA6
:1023700008B172B6FEE70F20CDE90A054FF4806080
:10238000CDE90C4001210AA80E94FFF71BFB08B110
:1023900072B6FEE710200F90800414900FA8FFF78C
:1023A0009DFA002801D072B6FEE715B030BD704727
:1023B0002DE9F041D0F8C062D0F8B822CAB101EBE3
:1023C000810300EB83040027E5693DB106EBC303FD
:1023D0001B6AB5FBF3F603FB165323B1C2F8147264
:1023E0000020BDE8F08100231A46E76100F07EFC82
:1023F000F6E70220F5E770B50546D0F8B84200F0E0
:102400007AFBC4F80C02D5F8B80248B1D5F8BC1272
:10241000D4F80402CA6804F503719047002070BD27
:10242000022070BD70B504460026812100F0B6FA86
:10243000002501212046E56200F0B0FA8221204605
:10244000C4F86C5100F0AAFA2564D4F8B80248B177
:10245000D4F8BC0204F52E7440688047206800F070
:1024600014FE2560304670BD10B5D0E9AE4159B1BB
:1024700094F80002FF2807D08B6894F801222146C7
:102480009847FF2084F80002002010BD0A21018037
:1024900000487047740000204321018000487047C5
:1024A000C4000020432101800048704780000020C4
:1024B0004321018000487047080100202DE9F041C8
:1024C00004460026007C4FF40077012590B340239A
:1024D00002228121204600F062FB4023E5620222B5
:1024E0000121204600F05BFB0823032282212046C5
:1024F000C4F86C5100F053FB4FF40770256400F0F2
:10250000C5FDC4F8B802F8B10546D4F8BC020068AD
:1025100080470021C5F81412C5F81812207CD5F8A0
:10252000042298B140230121204600F044FB3046AC
:10253000BDE8F081FFE73B4602228121204600F002
:102540002EFB3B46E562CAE70126F0E73B46EAE799
:1025500010B5D0F8B81269B1027C002AD1F8042273
:1025600005D04023012100F026FB002010BD4FF4D0
:102570000073F7E7022010BD02460220002902D0B6
:102580000020C2F8BC127047D0F8B802C0F804129C
:1025900000207047D0F8B802C0F81022C0F8081226
:1025A000002070472DE9FC410546D0F8B8720020A4
:1025B0008DF80000ADF80400064608780C4610F0CF
:1025C000600121D020293BD1E288AAB100066078C1
:1025D00007D5D5F8BC128B6839469847E28839464A
:1025E00026E087F80002A07987F80102E2883946E0
:1025F000284600F06AF828E0D5F8BC12607800227E
:102600008B682146984720E0607820B10A2809D0DD
:102610000B2815D110E095F89C02032810D1022256
:1026200001A905E095F89C02032809D10122694619
:10263000284600F064F808E095F89C02032804D0CE
:102640002146284600F036F802263046BDE8FC81D7
:1026500010B5D0F8B812A1B1D1F814220AB10120F6
:1026600010BD0122C1F81422D1F810220263B1F882
:10267000102293B2D1F80822812100F037FB00200C
:1026800010BD022010BD10B5D0F8B422526890479A
:10269000002010BD134610B50A46002100F08BFA49
:1026A000002010BD134610B50A46002100F01EFBA5
:1026B000002010BD10B50446802100F0FCFA204631
:1026C000BDE81040002100F0F6BA10B50323C0F8B1
:1026D0005C21C0F89432C0F8602113460A460021FC
:1026E00000F069FA002010BD10B505210023C0F8E4
:1026F00094121A46194600F05EFA002010BD10B57B
:102700000223C261C0F89432026213460A460021D5
:1027100000F0ECFA002010BD10B504210023C0F831
:1027200094121A46194600F0E1FA002010BD00008C
:1027300010B50A46024903A000F0E2F8004810BDB7
:102740005C04002043444320436F6E6669670000C9
:1027500012200880004870472000002010B50A466B
:10276000024903A000F0CCF8004810BD5C04002032
:1027700043444320496E74657266616365000000DE
:1027800004200880004870471C00002010B50A464D
:10279000024903A000F0B4F8004810BD5C0400201A
:1027A00053544D6963726F656C656374726F6E69C3
:1027B0006373000010B50A46024903A000F0A0F8B8
:1027C000004810BD5C04002053544D33322056693C
:1027D000727475616C20436F6D506F7274000000ED
:1027E00010B51A2008800A480168001D0468001D01
:1027F0000068081809D008220649FFF745FB05497B
:10280000042210312046FFF73FFB0248801E10BD16
:10281000E8F7FF1F36000020F8B504460020ADF8A9
:10282000000048880D46010A082948D2DFE801F077
:102830004704091747473D45D4F8B012207C0A6881
:1028400019E0207C02260028D4F8B40205D0C16A21
:1028500068468847014646703EE0816AF8E7C0B2A4
:1028600006282CD2DFE800F0030B1115191DD4F84F
:10287000B002426806E06946904701462CE0D4F871
:10288000B0028268DAB1207CF5E7D4F8B002C26801
:10289000F8E7D4F8B0020269F4E7D4F8B00242696C
:1028A000F0E7D4F8B0028269ECE7207C38B9D4F8BC
:1028B000B402416B68468847DFE7207C20B1294697
:1028C0002046FFF7F7FEF8BDD4F8B402016B684666
:1028D0008847014607204870BDF8000048B1EA88E3
:1028E00052B1824200D90246ADF800202046FFF7DF
:1028F00006FFE8880028E6D12046FFF70DFFF8BD67
:1029000070B5002300281ED00446002502E06D1C8F
:10291000EDB2641C2678002EF9D1022404EB4504A4
:1029200014801278CA545B1C0322CA5400245B1C16
:1029300006E0CA545B1CDAB28C54521CD3B2401C61
:102940000278002AF5D170BD01004FF0000004D0DC
:10295000012901D0022901D00220704701207047CF
:1029600010B580B1D0F8B43213B10023C0F8B4323E
:1029700009B1C0F8B012012180F89C12027000F079
:10298000BFF8002010BD022010BD10B5D0F8C00265
:10299000FEF75FFBBDE81040FFF7D6BF10B5D0F8DB
:1029A000C002FEF731FBBDE81040FFF7CDBF2DE9B7
:1029B000F0411746044651B1D4F8B40242691AB145
:1029C00094F89C02032851D00220BDE8F081D4F88D
:1029D0009432002504F11400022B03D0042B3AD0CA
:1029E000C3B33CE0D0E903639E4207D9F11AC1604A
:1029F0008AB239462046FFF755FE12E08068B0FBE8
:102A0000F3F103FB110199B9984211D3D4F898124C
:102A100088420DD2002211462046FFF743FEC4F83B
:102A2000985200231A461946204600F0C4F816E0D2
:102A3000D4F8B402C16829B194F89C02032801D1EA
:102A4000204688478021204600F035F92046FFF7D0
:102A50004BFE04E0FFE78021204600F02CF994F8BB
:102A6000A002012804D184F8A05201E0204690473A
:102A70000020AAE770B51546044649B1D4F8B4025F
:102A800082691AB194F89C02032830D0022070BDEC
:102A9000D4F8941204F5AA70032902D005291ED097
:102AA00027E0D0E903318B420BD95B1AC36008469B
:102AB000834200D303469AB229462046FFF7EAFD37
:102AC00017E0D4F8B402016929B194F89C020328F4
:102AD00001D1204688472046FFF71EFE09E000206E
:102AE0000146C4F89402204600F0E5F801E02046D3
:102AF0009047002070BDD0F8C002FEF777BA000002
:102B000010B504461C481D49C0F8D442C4F8C002A0
:102B10000160082101710221817100218172C1725D
:102B20000173FEF701FE08B1FDF72DFF0022D4F876
:102B3000C0021823114604F53074FEF725FA582315
:102B4000002280212068FEF71FFAC0230022812185
:102B50002068FEF719FA4FF48873002201212068DB
:102B6000FEF712FA4FF48073002282212068FEF7EC
:102B70000BFA002010BD00007C100020005C00401B
:102B80000A0601F07F01D0F8C00201EB810100EBE1
:102B9000C10001D5807C704790F85201704710B594
:102BA0001C461346D0F8C0022246FEF792FCBDE850
:102BB0001040FFF7C9BE10B5D0F8C002FEF7B5FC53
:102BC000BDE81040FFF7C0BE70B5002204464023A8
:102BD0001146FFF7E4FF40260125C4F8646133463F
:102BE000002280212046C4F85851FFF7D8FF6662C2
:102BF000A56184F89C520020C4F894026060C4F877
:102C0000A402D4F8B80228B1D4F8B4020021426872
:102C100020469047002070BD90F89C12042903D1F3
:102C200090F89D1280F89C120020704710B590F823
:102C30009C12032904D1D0F8B412C96901B18847A4
:102C4000002010BD01740020704710B5D0F8C002FC
:102C5000FEF7FFFDBDE81040FFF776BE70B50446F5
:102C600000F52A70054600F04AF80120C4F89402E5
:102C7000B4F8AE02C4F8980294F8A82212F01F002B
:102C80000AD001280DD0022810D002F08001204681
:102C900000F011F8002070BD2946204600F09DF894
:102CA000F8E72946204600F0C9F9F3E7294620460F
:102CB00000F01CF9EEE710B5D0F8C002FEF74CFCAE
:102CC000BDE81040FFF740BE10B5D0F8C002FEF7D7
:102CD000DAFDBDE81040FFF737BE90F89C1280F88F
:102CE0009D12042180F89C120020704710B5D0F886
:102CF000C002FEF769FCBDE81040FFF725BE0A7868
:102D000002704A7842708A78CB7802EB03224280C4
:102D10000A794B7902EB032282808A79C97902EB26
:102D20000121C18070470246002011B1C2F8B412DF
:102D300070470220704710B5D0F8B42202241AB1AF
:102D40001268904700B90024204610BD70B50E46A9
:102D50001E4D897804462970012931D894F89C02C7
:102D600002280BD003280FD031462046FFF7A2FCE3
:102D700029782046BDE87040FFF785BCD9B1032013
:102D8000616084F89C0209E071B16068884212D0E9
:102D9000C1B22046FFF777FC297861602046FFF733
:102DA000CAFF02280CD006E0022084F89C022046CC
:102DB0006160FFF768FC2046BDE87040FFF7ACBCDF
:102DC00031462046BDE87040FFF774BC700000201B
:102DD00010B5FFF779FF002010BD2DE9F0410A780A
:102DE000002712F0600208D0202A01D0402A70D1BA
:102DF000D0F8B422926890476DE04A78002301260B
:102E00000A2A66D2DFE802F0405D6557650805656D
:102E10002C29FFF701FD5EE004468888D8B9C888F0
:102E2000C8B94888802816D200F07F0594F89C0223
:102E3000032810D084F89E5229462046FFF705FF4C
:102E40002046FFF769FC1DB1022084F89C0242E095
:102E500084F89C623FE020463BE0FFF777FF3AE0D2
:102E6000CA88012A35D190F89C22012A04D0022A6E
:102E700002D0032A2DD104E0012200F10801836071
:102E800016E00122011D13E090F89C22012A03D0D4
:102E9000022A01D0032A1CD1CA88022A19D1C6608D
:102EA000D0F8A41209B10321C160022200F10C0183
:102EB000FFF725FC0FE0498801290CD1C0F8A46276
:102EC00011E090F89C22012A08D0022A06D0032A99
:102ED00004D0FFF7EFFB3846BDE8F08149880129AF
:102EE000F9D1C0F8A432FFF717FCF4E72DE9F0415F
:102EF0000A46044613780027097913F060000AD0C7
:102F0000202801D0402850D1D4F8B402114683685B
:102F1000204698478FE0C3F34110012806D050782F
:102F2000D0B301282AD003283FD107E0D4F8B40257
:102F3000114683682046BDE8F041184794F89C028A
:102F4000022802D0032872D10AE071B380296ED022
:102F50002046FFF7B0FE80212046FFF7ACFE6AE076
:102F6000508838B931B1802904D0D08810B92046B2
:102F7000FFF7A1FE2046FFF7CFFB5CE094F89C0230
:102F80000228E2D0032852D1508898BB4806F1D0DD
:102F90002046FFF7FAFCEDE7FFE794F89C020026D5
:102FA000022803D0032842D112E040E009B1802971
:102FB0003DD1080601F07F0000EB800004EB8001AA
:102FC00001D5143101E001F5AA7102220E602AE058
:102FD000080601F00F0000EB800004EB80000AD52A
:102FE000806920B301F07F0000EB800004EB8005D6
:102FF00014350BE01FE0D0F85801C0B101F07F009C
:1030000000EB800004EB800505F5AA7541B180292D
:1030100006D02046FFF7B4FD10B10120286000E083
:103020002E60022229462046FFF769FB03E0114685
:103030002046FFF73FFB3846BDE8F08170B50546F6
:1030400008780C4610F0600203D0202A01D0402AF4
:1030500016D195F89C22012A03D0022A01D0032A16
:103060000ED1207901280BD8D5F8B4028268284601
:103070009047E188014306D12846FFF74DFB02E067
:103080002846FFF717FB002070BD704700487047C7
:103090005C0E00202DE9F0470D78002730F8252040
:1030A00048F68F131A40CB78002B72D0012B76D0C4
:1030B000022B02D0032B6FD0012748F28004224359
:1030C00020F825200A7830F8223048F68F752B40FA
:1030D0001343234320F822300B7B48F2C00948F603
:1030E000BF724CF2800A4BF68F7CE3B3CB78022B95
:1030F0000B7830F8236078D048F68F6806EA080627
:10310000264320F82360B0F850300E78034403EBD8
:1031100006130E8926F00106A3F80064B0F85030BB
:103120000E78034403EB06134E8926F00106A3F83C
:1031300008644B78002B0B7830F823604FEA464642
:103140007ED0002E06DA30F823602E4046EA0A06CA
:1031500020F823600B7830F82360760608D530F825
:1031600023602E4000E01DE046EA090620F82360B7
:10317000CB78012B0B7830F8235005EA02057CD080
:1031800085F02002224320F82320B7E001E006E08A
:1031900002E042F4007290E742F4C0628DE742F42C
:1031A00080628AE74B784BB3B0F850300E78034416
:1031B00003EB0613CE8826F00106A3F800640B7813
:1031C00030F82360760606D530F823602E4046EAB4
:1031D000090620F82360CB78012B07D0097830F856
:1031E0002130134083F020028DE05EE0097830F852
:1031F00021301340234320F8213087E0B0F85020DD
:103200000B78024402EB0312CB8823F00103A2F8EF
:103210000834B0F850200B78024402EB0312B2F8E5
:103220000C34C3F30903A2F80C340B6902F20C420C
:103230003E2B0BD95E09DB0600D1761E138800E019
:1032400039E04FF4004848EA862609E00BB35E08EF
:10325000DB0700D0761C13884FF6FF7808EA862635
:10326000334313800A7830F822305B0408D530F8F5
:1032700022302B4043EA0A0300E03CE020F82230F1
:10328000097851B130F8212002EA0C0282F4005290
:1032900039E0138843F40043E3E7018801EA0C01B5
:1032A00081F440512143018030E02E4048F28018E3
:1032B00046EA080625E7002E06DA30F823602E409D
:1032C00046EA0A0620F823600B7830F82360760679
:1032D00006D530F823602E4046EA090620F8236020
:1032E0000B7830F8235005EA0C0585F4405525434A
:1032F00020F823507AE7254320F82350097830F846
:10330000212002EA0C02224320F821203846BDE8A1
:10331000F08700000A490878002810D08B88488878
:103320000022834201D0888008E08879401CC0B226
:103330008871052803D3012048700A708A7170478C
:103340009001002001490020487070479001002042
:1033500003484178012901D0002070474088704718
:10336000900100202DE9F0410C46002811D0002CDE
:103370000FD0194D697800290BD129784FF40062DC
:103380000126D1B1698800270B19934203D92F7008
:103390006F80BDE8F081114A8B180146224618461D
:1033A000FDF70FF8402C04D02F706E706888204411
:1033B00001E0688840306880EBE79442E9D8014634
:1033C00022460648FCF7FDFF402C02D06E706C8050
:1033D000DFE72E704020EEE79001002098170020D4
:1033E00010B530B129B1FDF7B7FA012800D000209F
:1033F00010BD012010BD000030B585B00020029046
:103400001348816941F00401816180694FF480545F
:1034100000F0040004900120CDE9004002200D4D91
:10342000039069462846FDF711FC002221462846F4
:10343000FDF704FDC820FDF743FB01222146284685
:10344000FDF7FCFCC820FDF73BFB05B030BD0000DC
:103450000010024000080140002070472DE9F043B1
:1034600091F80C804C780A7848F6BF774BF68F7944
:1034700048F2800548F2C0064CF2800C48F68F7383
:10348000B8F1000F29D0002C30F822404FEA444414
:1034900048D0002C06DA30F822401C4044EA0C04E4
:1034A00020F822400A7830F82240640605D530F82A
:1034B00022401C40344320F822400A7830F8224051
:1034C0001C4044EA0C0420F822400A7830F82230EC
:1034D0003B402B4320F8223019E0002C30F82240EA
:1034E0000CD0640605D530F822401C40344320F847
:1034F0002240097830F821203A400DE0640406D5D6
:1035000030F822401C4044EA0C0420F8224009789C
:1035100030F8212002EA09022A4320F82120002065
:10352000BDE8F083002C06DA30F822401C4044EA63
:103530000C0420F822400A7830F82240640605D5B1
:1035400030F822401C40344320F822400A7830F8FA
:1035500022401C40344320F822400A7830F82230C0
:1035600003EA09032B4320F82230C2E7002070470A
:1035700000207047012120F8401F00210180818038
:1035800001820846704730F8401F21F43F41018016
:10359000002070470020704730B50A7BA2BB4A78F4
:1035A00048F68F75002A0A7848F2800430F82230F5
:1035B00015D05B0607D530F822302B4048F2C00505
:1035C0002B4320F82230CA78012A1DD0097830F820
:1035D000212048F6BF731A4082F0200211E05B04FC
:1035E00007D530F822302B404CF280052B4320F8D1
:1035F0002230097830F821204BF68F731A4082F47C
:103600004052224320F82120002030BD10B54A78D6
:103610000978002A48F2800330F8212005D048F6C6
:10362000BF74224082F0100204E04BF68F742240F7
:1036300082F480521A4320F82120002010BD2DE989
:10364000F0470C464B78097B05464FF0000948F6D9
:103650008F7248F2800A4FF400474FF6FF78012B33
:1036600009D000296FD0E07802286DD001286CD0F5
:103670000120BDE8F087A6692069864200D9064688
:1036800091B1E17802291ED0206A801B2062207847
:1036900035F820104906B5F85010294401EB001008
:1036A00073D5A0F80C6416E1B3B2E28828466169CC
:1036B00000F064FAB5F850002178284400EB0110BE
:1036C000A0F804640DE1216A8142207876D935F8AA
:1036D0002010114048F28012114325F82010206A72
:1036E000801B2062207835F820104906617871D55A
:1036F00011B101292AD030E0B5F85010294401EB6E
:103700000010B0F80C14C1F30901A0F80C1400F279
:103710000C403E2E07D97109F20600D1491E0288DD
:1037200047EA812107E04EB17108F20700D0491C39
:10373000028808EA81210A4302800EE0018841F4F0
:103740000041018009E0F0E01FE194E1B5F850206C
:10375000511901EB0010A0F80C646289B3B228463D
:10376000616900F00BFA6069304460612169206A88
:10377000884202D9801B206202E00646C4F82090ED
:10378000607818B101282BD032E02FE0B5F8500056
:103790002178284400EB0110B0F80414C1F30901AA
:1037A000A0F8041400F204403E2E08D97109F20674
:1037B00000D1491E028847EA812108E0A1E056B104
:1037C0007108F20700D0491C028808EA81210A43E7
:1037D00002800DE00EE0018841F40041018007E025
:1037E000B5F850002178284400EB0110A0F80464DB
:1037F000228971E011B1012927D02DE0B5F85010D0
:10380000294401EB0010B0F80414C1F30901A0F839
:10381000041400F204403E2E07D97109F20600D1CB
:10382000491E028847EA812107E04EB17108F2077C
:1038300000D0491C028808EA81210A4302800BE07B
:10384000018841F40041018006E0B5F85010294498
:1038500001EB0010A0F804642289B3B22846616924
:1038600000F08CF96069304460612169206A884207
:1038700002D9801B206202E00646C4F820906078DE
:1038800010B1012836D026E0B5F850002178284440
:1038900000EB0110B0F80C14C1F30901A0F80C14EE
:1038A00000F20C403E2E07D97109F20600D1491EE4
:1038B000028847EA812107E04EB17108F20700D083
:1038C000491C028808EA81210A43028003E001883A
:1038D00041F4004101806289B3B22846616900F079
:1038E0004DF9207835F8201048F6BF72114081F06C
:1038F00030010EE1B5F850104819217800EB0110A5
:10390000CFE635F8202048F68F631A4042EA0A02D3
:1039100025F82020B5F850002278284400EB02104A
:103920008BB2A0F804342289D7E7A16920698142CB
:1039300002D9091AA16102E00846C4F81890B5F846
:1039400050102278294401EB0211B1F80C24C2F383
:103950000902A1F80C2401F20C413E287DD942094C
:10396000C00600D1521E088847EA82220AE0088871
:1039700040F4004007E04208C00700D0521C08880D
:1039800008EA822210430880BBE033BBB5F8500040
:103990002178284400EB0110B0F80414C1F30901A8
:1039A000A0F80414216900F204403E2907D94B090C
:1039B000C90600D15B1E018847EA832307E041B1B5
:1039C0004B08C90700D05B1C018808EA8323194310
:1039D00002E0018841F400410180607810B10128C3
:1039E00028D030E0B5F850002178284400EB0110D1
:1039F000B0F80C14C1F30901A0F80C14216900F20D
:103A00000C403E2907D94B09C90600D15B1E01882D
:103A100047EA832307E041B14B08C90700D05B1C8C
:103A2000018808EA8323194302E0018841F4004138
:103A3000018008E0B5F850104819217800EB01101A
:103A4000218AA0F80C14E069C0B3217835F8210070
:103A5000430401D5430605D400E046E044F24003A8
:103A600018424ED135F82100104048F2C0021043F0
:103A700025F8210045E0A1692069814202D9091A8F
:103A8000A16102E00846C4F8189013BBB5F85010C5
:103A90002278294401EB0211B1F80424C2F309028F
:103AA000A1F8042401F204413E2808D94209C306C2
:103AB00000D1521E0B8847EA822208E021E078B14B
:103AC0004208C30700D0521C0B8808EA8222134325
:103AD0000B80617800293FF42EAF012909D010E056
:103AE0000A8842F400420A80F3E700287FF443AFDB
:103AF0003DE7B5F850205119227801EB0211A1F8E9
:103B00000C04207835F820104BF68F72114081F4A8
:103B1000405141EA0A0125F820100020A9E50021C2
:103B2000A0F844104FF43F41A0F840100020704727
:103B30000148FDF760BD00007C100020B0F8440093
:103B4000704710B500EB42005C0800F5806008D0BB
:103B500030F8042B01F8012B120A01F8012B641E26
:103B6000F6D1DA0701D00088087010BD0020704738
:103B700011B98021A0F84C100020704710B55B1CD3
:103B800000EB42005B0800F5806009D011F8012BC2
:103B900011F8014B42EA042220F8042B5B1EF5D1F8
:103BA00010BDFEE70907090E002804DB00F1E02044
:103BB00080F80014704700F00F0000F1E02080F85A
:103BC000141D704710B50168074A1140B1F1005F3C
:103BD00009D14168054C2160006800F09CF820681C
:103BE000BDE81040004710BD0000FE2F84010020FA
:103BF000FDF738F9FEF79FFBFEF764F9FCF79EFD31
:103C0000FEE710B5002305E030F8024B21F8134021
:103C10005B1C9BB29342F7D310BD00002DE9F04F1F
:103C2000A0F1006485B0154688468246B4F5002FA1
:103C300056D2FCF7F7FFE70AC4F34906C6F58064DD
:103C4000A54200D82C46DFF8A0B04FF0006000EB92
:103C5000C72081464FF480622349FFF7D2FF00203E
:103C60004FF6FF7206E033183BF81310914203D170
:103C7000401C80B2A042F6D3A0422BD2002000907C
:103C80000120CDE90290019004A96846FCF72AFFC3
:103C900000205A4606E038F810108319401C22F81C
:103CA000131080B2A042F6D348464FF480620E490A
:103CB00000F01CF8A54211D0281B08EB44080AEBC1
:103CC000440A002685B24FF480647F1CA542BCD80C
:103CD0002C46BAE7224641465046E9E7FCF756FF34
:103CE00005B0BDE8F08F0000981F00202DE9F041DD
:103CF00016460F460546002409E037F81420002335
:103D000029460120FCF74CFF641CA4B2AD1CB44250
:103D1000F3D3BDE8F08180F3088870470102020305
:103D20000405060708090A0B0C0D0E0F1010000001
:103D3000000000000000010203040607080900005B
:103D4000603D000800000020980100006C010008A0
:103D5000203E000898010020604A0000C8010008C9
:103D60001351271B0881041A8D041AB5041AE104A3
:103D70001A31041A5D041704030904120114020223
:103D800002164083044057260201020301031A1A57
:103D9000031315091B080F041A0B041A3904192FF1
:103DA00011821053127A130A0632022A401C1C098F
:103DB0000243571125C03209041B01020B130524CD
:103DC000161001052401100901042402020524062D
:103DD000170107058203081C1009048D320A1D070C
:103DE000050102432C070581070938442A40072AA8
:103DF0008107112B0907440A3B044413BD241B0807
:103E0000250413A52542081A690C13B1231B08F7D2
:103E100004C11AA5182A991C19041A8D040114004A
:0400000508000131BD
:00000001FF
